{
  "contractName": "real_estate",
  "abi": [
    {
      "inputs": [],
      "name": "count",
      "outputs": [
        {
          "internalType": "uint256",
          "name": "",
          "type": "uint256"
        }
      ],
      "stateMutability": "view",
      "type": "function",
      "constant": true
    },
    {
      "inputs": [
        {
          "internalType": "uint256",
          "name": "",
          "type": "uint256"
        }
      ],
      "name": "products",
      "outputs": [
        {
          "internalType": "string",
          "name": "title",
          "type": "string"
        },
        {
          "internalType": "address",
          "name": "seller",
          "type": "address"
        },
        {
          "internalType": "address",
          "name": "buyer",
          "type": "address"
        },
        {
          "internalType": "uint256",
          "name": "price",
          "type": "uint256"
        }
      ],
      "stateMutability": "view",
      "type": "function",
      "constant": true
    },
    {
      "inputs": [
        {
          "internalType": "string",
          "name": "_title",
          "type": "string"
        },
        {
          "internalType": "address",
          "name": "_seller",
          "type": "address"
        },
        {
          "internalType": "uint256",
          "name": "_price",
          "type": "uint256"
        }
      ],
      "name": "addProduct",
      "outputs": [],
      "stateMutability": "nonpayable",
      "type": "function"
    },
    {
      "inputs": [
        {
          "internalType": "uint256",
          "name": "_id",
          "type": "uint256"
        }
      ],
      "name": "getProduct",
      "outputs": [
        {
          "components": [
            {
              "internalType": "string",
              "name": "title",
              "type": "string"
            },
            {
              "internalType": "address",
              "name": "seller",
              "type": "address"
            },
            {
              "internalType": "address",
              "name": "buyer",
              "type": "address"
            },
            {
              "internalType": "uint256",
              "name": "price",
              "type": "uint256"
            }
          ],
          "internalType": "struct real_estate.product",
          "name": "",
          "type": "tuple"
        }
      ],
      "stateMutability": "view",
      "type": "function",
      "constant": true
    },
    {
      "inputs": [
        {
          "internalType": "string",
          "name": "_title",
          "type": "string"
        }
      ],
      "name": "getHistoryProduct",
      "outputs": [
        {
          "components": [
            {
              "internalType": "string",
              "name": "title",
              "type": "string"
            },
            {
              "internalType": "address",
              "name": "seller",
              "type": "address"
            },
            {
              "internalType": "address",
              "name": "buyer",
              "type": "address"
            },
            {
              "internalType": "uint256",
              "name": "price",
              "type": "uint256"
            }
          ],
          "internalType": "struct real_estate.product[]",
          "name": "",
          "type": "tuple[]"
        }
      ],
      "stateMutability": "view",
      "type": "function",
      "constant": true
    },
    {
      "inputs": [],
      "name": "getAllProducts",
      "outputs": [
        {
          "components": [
            {
              "internalType": "string",
              "name": "title",
              "type": "string"
            },
            {
              "internalType": "address",
              "name": "seller",
              "type": "address"
            },
            {
              "internalType": "address",
              "name": "buyer",
              "type": "address"
            },
            {
              "internalType": "uint256",
              "name": "price",
              "type": "uint256"
            }
          ],
          "internalType": "struct real_estate.product[]",
          "name": "",
          "type": "tuple[]"
        }
      ],
      "stateMutability": "view",
      "type": "function",
      "constant": true
    },
    {
      "inputs": [],
      "name": "getMyTransactions",
      "outputs": [
        {
          "components": [
            {
              "internalType": "string",
              "name": "title",
              "type": "string"
            },
            {
              "internalType": "address",
              "name": "seller",
              "type": "address"
            },
            {
              "internalType": "address",
              "name": "buyer",
              "type": "address"
            },
            {
              "internalType": "uint256",
              "name": "price",
              "type": "uint256"
            }
          ],
          "internalType": "struct real_estate.product[]",
          "name": "",
          "type": "tuple[]"
        }
      ],
      "stateMutability": "view",
      "type": "function",
      "constant": true
    }
  ],
  "bytecode": "0x60806040526000805534801561001457600080fd5b506115cf806100246000396000f3fe608060405234801561001057600080fd5b506004361061007d5760003560e01c80637acc0b201161005b5780637acc0b20146100ee57806397e4ca7014610121578063a156c76c1461013f578063b9db15b41461015b5761007d565b806302ee3a521461008257806306661abd146100a0578063116e607f146100be575b600080fd5b61008a61018b565b6040516100979190610f97565b60405180910390f35b6100a8610392565b6040516100b59190610fc8565b60405180910390f35b6100d860048036038101906100d3919061112c565b610398565b6040516100e59190610f97565b60405180910390f35b610108600480360381019061010391906111a1565b61060b565b6040516101189493929190611227565b60405180910390f35b610129610703565b6040516101369190610f97565b60405180910390f35b6101596004803603810190610154919061129f565b6109e1565b005b610175600480360381019061017091906111a1565b610b13565b6040516101829190611371565b60405180910390f35b60606000805467ffffffffffffffff8111156101aa576101a9611001565b5b6040519080825280602002602001820160405280156101e357816020015b6101d0610c88565b8152602001906001900390816101c85790505b50905060005b60005481101561038a5760016000828152602001908152602001600020604051806080016040529081600082018054610221906113c2565b80601f016020809104026020016040519081016040528092919081815260200182805461024d906113c2565b801561029a5780601f1061026f5761010080835404028352916020019161029a565b820191906000526020600020905b81548152906001019060200180831161027d57829003601f168201915b505050505081526020016001820160009054906101000a900473ffffffffffffffffffffffffffffffffffffffff1673ffffffffffffffffffffffffffffffffffffffff1673ffffffffffffffffffffffffffffffffffffffff1681526020016002820160009054906101000a900473ffffffffffffffffffffffffffffffffffffffff1673ffffffffffffffffffffffffffffffffffffffff1673ffffffffffffffffffffffffffffffffffffffff16815260200160038201548152505082828151811061036c5761036b6113f4565b5b6020026020010181905250808061038290611452565b9150506101e9565b508091505090565b60005481565b60606000805467ffffffffffffffff8111156103b7576103b6611001565b5b6040519080825280602002602001820160405280156103f057816020015b6103dd610c88565b8152602001906001900390816103d55790505b50905060005b600054811015610601578360405160200161041191906114d7565b604051602081830303815290604052805190602001206001600083815260200190815260200160002060000160405160200161044d9190611582565b6040516020818303038152906040528051906020012014156105ee5760016000828152602001908152602001600020604051806080016040529081600082018054610497906113c2565b80601f01602080910402602001604051908101604052809291908181526020018280546104c3906113c2565b80156105105780601f106104e557610100808354040283529160200191610510565b820191906000526020600020905b8154815290600101906020018083116104f357829003601f168201915b505050505081526020016001820160009054906101000a900473ffffffffffffffffffffffffffffffffffffffff1673ffffffffffffffffffffffffffffffffffffffff1673ffffffffffffffffffffffffffffffffffffffff1681526020016002820160009054906101000a900473ffffffffffffffffffffffffffffffffffffffff1673ffffffffffffffffffffffffffffffffffffffff1673ffffffffffffffffffffffffffffffffffffffff1681526020016003820154815250508282815181106105e2576105e16113f4565b5b60200260200101819052505b80806105f990611452565b9150506103f6565b5080915050919050565b600160205280600052604060002060009150905080600001805461062e906113c2565b80601f016020809104026020016040519081016040528092919081815260200182805461065a906113c2565b80156106a75780601f1061067c576101008083540402835291602001916106a7565b820191906000526020600020905b81548152906001019060200180831161068a57829003601f168201915b5050505050908060010160009054906101000a900473ffffffffffffffffffffffffffffffffffffffff16908060020160009054906101000a900473ffffffffffffffffffffffffffffffffffffffff16908060030154905084565b60606000805467ffffffffffffffff81111561072257610721611001565b5b60405190808252806020026020018201604052801561075b57816020015b610748610c88565b8152602001906001900390816107405790505b50905060005b6000548110156109d9573373ffffffffffffffffffffffffffffffffffffffff166001600083815260200190815260200160002060020160009054906101000a900473ffffffffffffffffffffffffffffffffffffffff1673ffffffffffffffffffffffffffffffffffffffff16148061083c57503373ffffffffffffffffffffffffffffffffffffffff166001600083815260200190815260200160002060010160009054906101000a900473ffffffffffffffffffffffffffffffffffffffff1673ffffffffffffffffffffffffffffffffffffffff16145b156109c6576001600082815260200190815260200160002060405180608001604052908160008201805461086f906113c2565b80601f016020809104026020016040519081016040528092919081815260200182805461089b906113c2565b80156108e85780601f106108bd576101008083540402835291602001916108e8565b820191906000526020600020905b8154815290600101906020018083116108cb57829003601f168201915b505050505081526020016001820160009054906101000a900473ffffffffffffffffffffffffffffffffffffffff1673ffffffffffffffffffffffffffffffffffffffff1673ffffffffffffffffffffffffffffffffffffffff1681526020016002820160009054906101000a900473ffffffffffffffffffffffffffffffffffffffff1673ffffffffffffffffffffffffffffffffffffffff1673ffffffffffffffffffffffffffffffffffffffff1681526020016003820154815250508282815181106109ba576109b96113f4565b5b60200260200101819052505b80806109d190611452565b915050610761565b508091505090565b60405180608001604052808481526020018373ffffffffffffffffffffffffffffffffffffffff1681526020013373ffffffffffffffffffffffffffffffffffffffff1681526020018281525060016000806000815480929190610a4490611452565b9190505581526020019081526020016000206000820151816000019080519060200190610a72929190610cdc565b5060208201518160010160006101000a81548173ffffffffffffffffffffffffffffffffffffffff021916908373ffffffffffffffffffffffffffffffffffffffff16021790555060408201518160020160006101000a81548173ffffffffffffffffffffffffffffffffffffffff021916908373ffffffffffffffffffffffffffffffffffffffff16021790555060608201518160030155905050505050565b610b1b610c88565b60016000838152602001908152602001600020604051806080016040529081600082018054610b49906113c2565b80601f0160208091040260200160405190810160405280929190818152602001828054610b75906113c2565b8015610bc25780601f10610b9757610100808354040283529160200191610bc2565b820191906000526020600020905b815481529060010190602001808311610ba557829003601f168201915b505050505081526020016001820160009054906101000a900473ffffffffffffffffffffffffffffffffffffffff1673ffffffffffffffffffffffffffffffffffffffff1673ffffffffffffffffffffffffffffffffffffffff1681526020016002820160009054906101000a900473ffffffffffffffffffffffffffffffffffffffff1673ffffffffffffffffffffffffffffffffffffffff1673ffffffffffffffffffffffffffffffffffffffff1681526020016003820154815250509050919050565b604051806080016040528060608152602001600073ffffffffffffffffffffffffffffffffffffffff168152602001600073ffffffffffffffffffffffffffffffffffffffff168152602001600081525090565b828054610ce8906113c2565b90600052602060002090601f016020900481019282610d0a5760008555610d51565b82601f10610d2357805160ff1916838001178555610d51565b82800160010185558215610d51579182015b82811115610d50578251825591602001919060010190610d35565b5b509050610d5e9190610d62565b5090565b5b80821115610d7b576000816000905550600101610d63565b5090565b600081519050919050565b600082825260208201905092915050565b6000819050602082019050919050565b600081519050919050565b600082825260208201905092915050565b60005b83811015610de5578082015181840152602081019050610dca565b83811115610df4576000848401525b50505050565b6000601f19601f8301169050919050565b6000610e1682610dab565b610e208185610db6565b9350610e30818560208601610dc7565b610e3981610dfa565b840191505092915050565b600073ffffffffffffffffffffffffffffffffffffffff82169050919050565b6000610e6f82610e44565b9050919050565b610e7f81610e64565b82525050565b6000819050919050565b610e9881610e85565b82525050565b60006080830160008301518482036000860152610ebb8282610e0b565b9150506020830151610ed06020860182610e76565b506040830151610ee36040860182610e76565b506060830151610ef66060860182610e8f565b508091505092915050565b6000610f0d8383610e9e565b905092915050565b6000602082019050919050565b6000610f2d82610d7f565b610f378185610d8a565b935083602082028501610f4985610d9b565b8060005b85811015610f855784840389528151610f668582610f01565b9450610f7183610f15565b925060208a01995050600181019050610f4d565b50829750879550505050505092915050565b60006020820190508181036000830152610fb18184610f22565b905092915050565b610fc281610e85565b82525050565b6000602082019050610fdd6000830184610fb9565b92915050565b6000604051905090565b600080fd5b600080fd5b600080fd5b600080fd5b7f4e487b7100000000000000000000000000000000000000000000000000000000600052604160045260246000fd5b61103982610dfa565b810181811067ffffffffffffffff8211171561105857611057611001565b5b80604052505050565b600061106b610fe3565b90506110778282611030565b919050565b600067ffffffffffffffff82111561109757611096611001565b5b6110a082610dfa565b9050602081019050919050565b82818337600083830152505050565b60006110cf6110ca8461107c565b611061565b9050828152602081018484840111156110eb576110ea610ffc565b5b6110f68482856110ad565b509392505050565b600082601f83011261111357611112610ff7565b5b81356111238482602086016110bc565b91505092915050565b60006020828403121561114257611141610fed565b5b600082013567ffffffffffffffff8111156111605761115f610ff2565b5b61116c848285016110fe565b91505092915050565b61117e81610e85565b811461118957600080fd5b50565b60008135905061119b81611175565b92915050565b6000602082840312156111b7576111b6610fed565b5b60006111c58482850161118c565b91505092915050565b600082825260208201905092915050565b60006111ea82610dab565b6111f481856111ce565b9350611204818560208601610dc7565b61120d81610dfa565b840191505092915050565b61122181610e64565b82525050565b6000608082019050818103600083015261124181876111df565b90506112506020830186611218565b61125d6040830185611218565b61126a6060830184610fb9565b95945050505050565b61127c81610e64565b811461128757600080fd5b50565b60008135905061129981611273565b92915050565b6000806000606084860312156112b8576112b7610fed565b5b600084013567ffffffffffffffff8111156112d6576112d5610ff2565b5b6112e2868287016110fe565b93505060206112f38682870161128a565b92505060406113048682870161118c565b9150509250925092565b6000608083016000830151848203600086015261132b8282610e0b565b91505060208301516113406020860182610e76565b5060408301516113536040860182610e76565b5060608301516113666060860182610e8f565b508091505092915050565b6000602082019050818103600083015261138b818461130e565b905092915050565b7f4e487b7100000000000000000000000000000000000000000000000000000000600052602260045260246000fd5b600060028204905060018216806113da57607f821691505b602082108114156113ee576113ed611393565b5b50919050565b7f4e487b7100000000000000000000000000000000000000000000000000000000600052603260045260246000fd5b7f4e487b7100000000000000000000000000000000000000000000000000000000600052601160045260246000fd5b600061145d82610e85565b91507fffffffffffffffffffffffffffffffffffffffffffffffffffffffffffffffff8214156114905761148f611423565b5b600182019050919050565b600081905092915050565b60006114b182610dab565b6114bb818561149b565b93506114cb818560208601610dc7565b80840191505092915050565b60006114e382846114a6565b915081905092915050565b60008190508160005260206000209050919050565b60008154611510816113c2565b61151a818661149b565b94506001821660008114611535576001811461154657611579565b60ff19831686528186019350611579565b61154f856114ee565b60005b8381101561157157815481890152600182019150602081019050611552565b838801955050505b50505092915050565b600061158e8284611503565b91508190509291505056fea2646970667358221220fdbb8940cbff6ea45d553875ed9949bd773ea2106536a2770dca1bf0d843d39664736f6c634300080a0033",
  "immutableReferences": {},
  "source": "// SPDX-License-Identifier: MIT\r\npragma solidity >=0.4.22 <0.9.0;\r\npragma experimental ABIEncoderV2;\r\n\r\ncontract real_estate{\r\n    uint public count =0;\r\n     \r\n  struct product{\r\n    string title;\r\n    address seller;\r\n    address buyer;\r\n    uint256 price;\r\n}\r\nmapping(uint =>product) public products;\r\n\r\n    function addProduct(string memory _title, address  _seller,uint256  _price) public  {\r\n    products[count++]=product(_title,_seller,msg.sender,_price);\r\n\r\n    }\r\n   \r\n\r\n    function getProduct(uint _id) public view returns( product memory ) {\r\n        return  products[_id];\r\n    }\r\n\r\n  //afficher les historiques de vente d'un produit (cherchant par son titre de proprit)\r\n\r\n function getHistoryProduct(string memory _title) public view returns (product[] memory){\r\n        product[] memory histo = new product[](count);\r\n        for (uint j = 0; j < count; j++) {\r\n                     //verifier si le titre d'acquisition est le meme de chaque product[j]\r\n            if(keccak256(abi.encodePacked((products[j].title))) == keccak256(abi.encodePacked((_title))))  {\r\n               histo[j] = products[j];\r\n            }\r\n        }\r\n        return histo;\r\n    }\r\n     //afficher tous les transactions\r\n     function getAllProducts() public view returns (product[] memory){\r\n        product[] memory all = new product[](count);\r\n        for (uint j = 0; j < count; j++) {\r\n           \r\n               all[j] = products[j];\r\n            \r\n        }\r\n        return all;\r\n    }\r\n    //afficher les transactions d'un utilisateur\r\n     function getMyTransactions() public view returns (product[] memory){\r\n        product[] memory mine = new product[](count);\r\n        for (uint j = 0; j < count; j++) {\r\n            //verifier si le demandeur est soit le vendeur ou l'acheteur(retourner ses transactions)\r\n            if((products[j].buyer==msg.sender || products[j].seller==msg.sender) ){\r\n               mine[j] = products[j];\r\n            }\r\n        }\r\n        return mine;\r\n    }\r\n    \r\n  \r\n    \r\n\r\n  \r\n\r\n}\r\n",
  "sourcePath": "C:\\Users\\LM\\Bureau\\projet_dapp\\myDapp_truffle\\contracts\\real_estate.sol",
  "compiler": {
    "name": "solc",
    "version": "0.8.10+commit.fc410830.Emscripten.clang"
  },
  "schemaVersion": "3.4.4",
  "updatedAt": "2022-02-07T18:36:43.803Z",
  "networkType": "ethereum",
  "devdoc": {
    "kind": "dev",
    "methods": {},
    "version": 1
  },
  "userdoc": {
    "kind": "user",
    "methods": {},
    "version": 1
  }
}